:400000000040002011000000990400009904000080B500AF00F044FA80B584B000AF021CFB1D1A70204A3B1C0B3312781A701F4A3B1C0A3312781A700423013BFB6018E051
:400040001B4B1868391C0B31FA68131C5B009B18C3185B780B70164B1868391C0A31FA68131C5B009B18C3189B780B70FB68013BFB60FB68002B0ADB0D4B1968FA68131CF1
:400080005B009B185B5CFA1D12789A42D8D9094B3A1C0B3212781A60074B3A1C0A3212781A60BD4604B080BDCCF1FF0FCDF1FF0FCC0000201CFF0B4020FF0B4080B500AF4F
:4000C000284B12221A603020FFF7A6FF264B274A1278D2B21A60052000F0A2FC244B35221A6000F0C5FBFA235B00181C00F074FC012000F0CDFB1F4B1F4A1A601F4B8022A9
:40010000D2051A601E4B1F4A1A601F4B1E4A126808218A431A60FA23DB00181C00F062FB1A4B181C00F07CFC194BC02252011A60184B194A1A60194B00221A60154B184AD7
:400140001A60184B822212061A60174B8022D2021A60164B41221A60154B40221A60BD4680BDC0463000104028FF0B40FDF1FF0F2CFF0B4004010B40060000800C020B40C7
:400180007C002E402D3E00006CF02E40DC050000040301400000014041FF00800003014040FF008008010B4000010B40180101400801014080B582B000AF72B64B4B0022B9
:4001C0001A60FB1D00221A7023E0FB1D1A78131C5B009B185B00464A9B183B603B681A78597809020A43997809040A43DB781B0613431A1C3B6819795B791B020B439BB214
:40020000101C191C00F0D0F9FB1D1A78FB1D01321A70FB1D1B78012BD7D9364A364B101C191C00F0D1F9354BEE2212061A60344BFF221A60334BFF221A60334B334A1A60B8
:40024000334B344A1A60344BC02212041A60334B0F221A60324B0F221A60324B01221A60314B0E221A60314B01221A60304B03221A60304B36221A602F4B03221A602F4B73
:40028000992212041A602E4B992212041A602D4B802212041A602C4B992212041A602B4B992212041A602A4B294A1278D2B202210A43D2B21A70274B264A1278D2B20C2171
:4002C0008A43D2B204210A43D2B21A70204B204A1278D2B216210A43D2B21A70FFF7EEFE00F0B2F9BD4602B080BDC0466CF02E402C250000382500003C2500000000024028
:40030000000402400005024008000440800DD80008010440B663C30008020440000304401803044000040440080404401804044000050440080504401805044000500F40D0
:4003400010500F4014500F4020500F4030500F4000700F4001700F4010B5064C2378002B07D1054B002B02D0044800E000BF0123237010BDE0000020000000002425000054
:4003800008B5084B002B03D00748084900E000BF07480368002B03D0064B002B00D0984708BDC0460000000024250000E4000020C80000200000000080B582B000AFBB1D1F
:4003C00000221A8000F040FB00F064FC322000F003FB012000F09EF9012000F075F900F00BF8021CBB1D1A80FA235B00181C00F0F3FAF4E70000000098B500AF012000F06B
:4004000057FC031C181C01F07FFE031C0C1C181C211C184B164A01F07FF8031C0C1C181C211C154A154B00F053FD031C0C1C181C211C134A134B01F06FF8031C0C1C181CC8
:40044000211C114A114B01F0F7FA031C0C1C181C211C0F4A0F4B01F05FF8031C0C1C181C211C00F015FD031C9BB2181CBD4698BD6666666666660A40000000000000A040B3
:4004800083C0CAA145362440910F7A36AB3EF53F0000000000408F4080B500AFFEE7C04680B586B000AF224B7B61224B3B61204B7B6135E03B691B68FB603B695B68BB6098
:4004C0003B699B683B6000237B600CE0FB681A68BB681A60BB680433BB60FB680433FB607B6804337B607A683B689A42EED13B69DB683B6000237B6008E0BB6800221A60A8
:40050000BB680433BB607B6804337B607A683B689A42F2D13B6910333B617B69013B7B617B69002BC6D101F0CFFFFFF745FFFEE701000000F825000080B582B000AF154B96
:40054000144A126801218A431A6000237B600FE07B68032B04D8104B7A689200D35800E00E4B0F4A796889008B507B6801337B607B682F2BECD9FFF71DFE0A4B00221A6099
:40058000044B044A126801210A431A60BD4602B080BDC04600001040000000009904000000000020C000002080B582B000AF786039607A683B68101C00211A1C01F0AAFF2D
:4005C000BD4602B080BDC04680B586B000AF7860396000233B6100237B612EE07B699B007A68D3181B68BB603B1C0F33BA681A70BB68FF229343BB6017E03B695B003A68B0
:40060000D3181B781A1CBB68D3183A69520039688A1852781A703B6901333B613B1C0F331A783B1C0F33013A1A703B1C0F331B78002BE2D17B6901337B617B69002BCDD0C5
:40064000BD4606B080BDC04680B500AF094B03221A60094B03221A60084B0F221A60084B0F221A60074B00221A60012000F00CF8BD4680BD300030403000314000033A40B7
:4006800040033A40000E3F4080B584B000AF021CFB1D1A700B4B1B68FB60FB1D1B78002B05D0FB68802212061343FB6003E0FB685B005B08FB60034BFA681A60BD4604B02B
:4006C00080BDC04680033A4080B584B000AF021CFB1D1A700E4B1B68DAB23B1C0F3302218A431A70FB1D1B78DB18DAB202231340D9B23B1C0F333A1C0F3212780A431A70A9
:40070000034B3A1C0F3212781A60BD4604B080BD0001044080B584B000AF021CFB1D1A700E4B1B68DAB23B1C0F3320218A431A70FB1D1B785B01DAB220231340D9B23B1C1B
:400740000F333A1C0F3212780A431A70034B3A1C0F3212781A60BD4604B080BD0001044080B500AF0B4B0B4A126801218A431A60094B094A126830218A4310210A431A6074
:40078000054B054A126807218A4301210A431A60BD4680BD00F02E4000FF2E4080B500AF0E4B0E4A126802218A431A600C4B0C4A126807218A4302210A431A60084B084A13
:4007C000126830218A4320210A431A60034B034A126801210A431A60BD4680BD00F02E4000FF2E4080B584B000AF78600023FB60154B154A126801210A431A60134B144A04
:400800001A60144B134A1268802109020A431A607B68002B13D01023FB600DE0012000F0FFF800F019F8031C002B02D00023FB6005E07B68013B7B607B68002BEED1FB6877
:40084000181CBD4604B080BD60F02E4078002E400220000010002E4080B500AF034B1A6801231340181CBD4680BDC0460C002E4080B500AFFFF774FF044B044A12688021E8
:4008800009060A431A60BD4680BDC04600F02E4080B584B000AF78600C4B1A6801231340FB607B68002B02D0012B03D005E0FFF757FF06E0FFF772FF03E0002000F082F859
:4008C000C046FB68181CBD4604B080BD00F02E4080B584B000AF021C3960FB1D1A7080239B05FB60FB1D1B781F2B02D9002000F069F8FB1D1B7810339B00FA68D3181B6860
:40090000BB60FB1D1B7810339B00FA68D3183A681A60BB68181CBD4604B080BD90B587B000AF0A1CFB1D011C1970BB1D1A70BB1D1B78032B02D9002000F044F8FB1D1B7883
:400940001F2B02D9002000F03DF8FB1D1A7803231340DB0006337B613C1C133400F0E1F9031C2370FB1D1B789B08DBB29B0014495B181B68FB607B690322111C99400B1C85
:40098000DA43FB681340FB60BB1D1A787B69111C99400B1CFA681343FB60FB1D1B789B08DBB29B00064A9B18FA681A603B1C13331B78181C00F0B9F9BD4607B090BDC04613
:4009C00000E400E080B582B000AF021CFB1D1A7001BEBD4602B080BD80B582B000AF786008E00C4B1B68181C00F092F97B680A4A9B187B607A6880231B029A42F1D8074BEF
:400A00001B687A685343181C00F082F9BD4602B080BDC046DC0000200080FFFFD400002080B582B000AF021CBB1D1A80BB1D1B88044A12785343181C00F06AF9BD4602B0EB
:400A400080BDC046D800002080B500AF064B1B78002B04D100F00AF8034B01221A7000F0FDF8BD4680BDC046FC00002090B585B000AF0F200321FFF751FF5D4B0F20191C71
:400A8000FFF726FF5B4B07221A605B4B5B4A1A605B4B5C4A1A605C4B5C4A1A605C4B00221A605C4B5C4A1A605C4B5B4A1A605C4B5B4A1268802149020A431A60594B594AF0
:400AC0001268802149020A431A60574B00221A60564B00221A60564B01221A60554B1B687B607A68544B13407B607B688022920513437B607B68012293437B604D4B7A68E5
:400B00001A600023FB606DE04C4BFA689200D258DC239B0113407B60494AFB68D3181B787A6813437B60FB689B00464A9B187A681A60424BFA689200D258012313400AD0D2
:400B4000394B394A1168FA680120041C9440221C92B20A431A60394BFA689200D258022313400AD0314B314A1168FA680120041C9440221C92B20A431A60304BFA689200A2
:400B8000D25880239B00134003D080235B00BB6002E080235B01BB60284BFA689200D25880235B00134005D1274BFA6852000021D15204E0244BFA6852000021D152BB6802
:400BC000224A5343224A9B18181C224900F0FEF8031C9BB219B2204BFA689200D150FB680133FB60FB68032B8ED9BD4605B090BDF50C000020003A4000003A4070200013F1
:400C000004003A408C00008018003A400000FF071C003A4010003A400200020014003A4000033A4040033A4028023A4038023A4018023A4030003A40FFFFFFDF40250000CF
:400C40005025000080003A400001002010270000E40C0000C81900000801002080B500AF0A4B1B68002B0EDBC046094B1B68002BFBDB064B054A1268802109060A431A6074
:400C80000A20FFF7CDFEBD4680BDC04600003A4008023A4080B500AF044B044A1268802149020A431A60BD4680BDC04604003A4080B584B000AF78607B68032B02D9002097
:400CC000FFF780FE7B68032B08D87B689B00084A9B181B681B041B0CFB6001E00023FB60FB689BB21BB2181CBD4604B080BDC04680013A4080B582B000AF044B1B687B6020
:400D0000024B7A681A60BD4602B080BD10023A400230800803D00138FDD1C046C046C0467047EFF3108072B6704780F310887047002934D00123002210B488422CD30124F7
:400D40002407A14204D2814202D209011B01F8E7E400A14204D2814202D249005B00F8E7884201D3401A1A434C08A04202D3001B5C0822438C08A04202D3001B9C08224389
:400D8000CC08A04202D3001BDC082243002803D01B0901D00909E3E7101C10BC7047002801D00020C04307B4024802A14018029003BDC046D90000000029F0D003B5FFF7E5
:400DC000B9FF0EBC4243891A1847C046002941D010B4041C4C40A44601230022002900D54942002800D5404288422CD301242407A14204D2814202D209011B01F8E7E400B0
:400E0000A14204D2814202D249005B00F8E7884201D3401A1A434C08A04202D3001B5C0822438C08A04202D3001B9C082243CC08A04202D3001BDC082243002803D01B091E
:400E400001D00909E3E7101C6446002C00D5404210BC7047002806D003DB0020C043400801E08020000607B4024802A14018029003BDC046190000000029EBD003B5FFF718
:400E8000A7FF0EBC4243891A1847C0467047C04638B50E4B0C4A041C0D1C01F0A7F9002804D1201C291C01F0FBF838BD074B064A201C291C00F0C0FD01F0F2F880231B063C
:400EC000C018F2E7C046C046000000000000E041F0B5564644465F464D46F0B41F1C0B031B0B98464B0087B0041C81465B0DC80F161C9A460090002B51D06A4B9A4531D0F5
:400F00008022414652030A43630FD2001A43664B90460025E20091469A44002402953B031B0B9B46FD0F7B00311C5B0D019560D05C4A934254D08021584649030143720F11
:400F4000C9001143584A8B469B18F1000020009A04436A4003920F2C00D9ADE0534EA4003459A746404604436ED1002102250824884689460295D2E7009C0298C346494662
:400F80000194022864D0032800D1ABE2012800D038E2019A002402400025A14660E0434623434AD04046002800D1C0E101F028F9031E272B00DDB3E128210D1A211C083B46
:400FC0004246E9409A400D1C1543221C9A40A8469146374B00251B1A9A46002402959EE75A4616430320002EB1D1B34600210220ADE75A4632431BD05B46002B00D18AE168
:40100000584601F0FDF8272800DD7DE12822171A011C321C08395B46FA408B40171C1F43331C8B40BB46191C214B1B1A00208EE70027BB460021012089E700200125042472
:401040008046814602956AE703250C24029566E7019C0394039D01222A400024114DA146002000212403260B0C0D2405114B34432D0523402B435B005B08D207191C4846EA
:40108000114307B03CBC90469946A246AB46F0BD0022802424039146024DE1E700240025A146DDE7FF07000001FCFFFF542500000DFCFFFFFFFF0F805546ED1A0495D845BD
:4010C00000D953E100D14EE1049C0025013C4E4604944746A946584603020C0E1C430902250C23041B0C0091381C291C0193FFF71FFE019983464143381C8A46291CFFF77C
:401100005BFE330C090419438A450CD95B460919013B8C4200D947E18A4500D844E102225242934409195346CB1A181C291C9846FFF7FEFD071C0198291C784382464046DF
:40114000FFF73AFE36040B04360C33439A4509D91B197A1E9C4200D924E19A4500D821E1023F1B195E4632041743380CBB46009E009F51463F0C32045B1A5946BA46120CC9
:401180000F043F0C904651467A434F434146414356467043CF19160CBE19B14202D980277F02C019310C12043604120C4018B618834200D2C4E000D1BEE0191A4846861B2E
:4011C000B145BF417F42CF1BA74200D113E1291C381CFFF7ADFD019902904143381C8946291CFFF7E9FD330C0904194389450CD9029B0919013B8C4200D9FFE0894500D8F1
:40120000FCE0029F0919023F02974F46CF1B381C291C0597FFF78CFD071C0198291C784381460598FFF7C8FD36040904360C0E43B14509D936197B1EB44200D9E0E0B14508
:4012400000D8DDE0023F3619029D4946761A290439430B0457460A0C1B0C40464546584355437B437A43EB18070CDB199D4202D980256D0252191D0C00041B04000C521934
:401280001B18964235D300D1FCE001231943049E994FF519002D00DCA1E0480709D00F230B40042B05D00B1D8B42894149428B44191C5A46D20107D5904B5C46049E8027C0
:4012C0001C40FF00A346F5198D4B9D427ADD039C0122224000248B4DA146C1E680242403474627424CD13C432403240B009A854DB6E63619481EB4425ED9011C9642C4D1B9
:40130000009E9E42C1D1C2E7031C283B311C99408B46002188E6301C00F072FF203072E6283B211C994000228846914651E6201C00F066FF20303BE60021B14500D33DE710
:40134000009F5A46B944B945BF417F423F19FB18013A9C421ED2984200D97EE000D1B5E0191A93462AE7894500D8ADE64846464642467708D3074608C0071E438146AAE669
:401380005846204212D1044324032A1C240B89465C4D65E6A342E3D1009F4F45DBD9211A93460BE7171CDDE69B46BCE63C432403240B009A534D53E6B24259D800D18AE0FD
:4013C000011C62E75F46C9087B07039E0B437C026D0501229946240B6D0D324040E64A4B049FDB1B382B10DD039C0122224000240025A14634E60121494248E7029304E725
:401400001F1C21E7019C039441E71F2B40DC3F48049F0C1C3A1858469140DC40904020430A1C511E8A41011C11435A46DA40131C480709D00F220A40042A05D00A1D8A42F2
:40144000894149425B18111C1A0234D5039C0122224000240125A14602E6009F02214942B9448B44B945894149420919CB18A4E6009D881E6900A942AD416D422C19361952
:4014800000913AE7002B00D033E70024009437E71F4A049C5D46121BD5402A1C202B1FD01C4E5F46A3199F403B1C19434B1E994111430023BCE75A07C9080A43039F91466F
:4014C0005B0201221C0B3A400025C9E54E45C4D89346002172E6009F9F42C9D3011C0FE70023E2E7802424035F463C432403240B019A8946034DB3E5FF030000FFFFFFFEC8
:40150000FE070000FF07000002FCFFFF1E040000E2FBFFFF3E040000F0B5564644465F464D46F0B41F1C0B031B0B9A464B0087B0041C80465B0DC80F161C02938146002B0F
:4015400068D0694B0299994232D08022534652031A43D200630F1A439246644AE000891880460291002400253B031B0B9B467800FB0F321C400D039300D175E05A4B984233
:4015800069D08022594652030A43730FD2001A43564B9346C018F200002303994E4671401C430F2C00D9A9E0514EA4003459A74653461C4300D087E00025AA46A8460824FF
:4015C0000225D1E74946022D6CD0032D00D117E2012D00D058E10D40EDB20024A9460023A0460020002125030A0D1C052D0B1205404B2A43134023435B004C465B08E207FF
:40160000191C4046114307B03CBC90469946A246AB46F0BD5346234350D05346002B00D184E1504600F0ECFD031E272B00DD76E128210D1A211C083B5246E9409A400D1CCE
:401640001543221C9A40AA4690462B4B00241B1A0293002588E75B461E430323002E9CD1B3460022022398E75B46334321D05846002800D14EE100F0C3FD272800DD42E1ED
:4016800028210F1A021C311C083A5B46F94093400F1C1F43331C9340BB461A1C164B181A00237AE701230B4000249946A0460E4B97E70027BB46002201236EE70021042426
:4016C0008A46884601254FE70C2403254CE700258024A9462403A846034B82E7DA46904603991D1C6FE7C046FF07000001FCFFFF94250000FFFF0F800DFCFFFF029F160CA9
:40170000381804904046070C0004000C1204120C031C5343041C3D1C7443554398463B1C73436419A44644460293230C63449D4204D9029D802464022D1902951D0C039521
:4017400045462C041B04240C1C1905945C46230C051C58432404240C8446381C604365435F438146CC44280C6044BB46814502D980277F02BB442D04070C2D0C000440194F
:401780005546BC462F04E3448446280C3D0C2F1C5743B8462F1C77434243B94647463F0C9144BA46D14446434A4502D980225202B6184F463A0CB6183A0447463F043F0C04
:4017C000B8462F1C67435D434443584365190190380C2D184244B846AC4204D9019880235B02C0180190039C029F201C6044C0196045A44147466442A4462B043C0499465D
:40180000240C4C44A046D8448018C246E24490429241574652429146F219E245BF417F424B46BC46D845BF41D4187F4263461F432D0C7F19B24292414C45AD4152426D42BE
:401840001543019E7D19AB19E20D5B02059F134342023A439A46531E9A41C30D101C18436402204380465046C0010DD5454601225646049C6B082A401A43F30701341A4315
:40188000760804949046B246049E634FF319002B61DD404640070BD00F2244462240042A06D042460432424580414042824490465546ED0107D5594B5646049F80201E4048
:4018C000C000B2463B18564A934200DDEAE644465546E2086807104301226C025B050A408046240B5B0D91467BE6DA4690461D1C69E680242403574627421CD13C43240338
:40190000240B484B6DE6031C283B311C99408B460022C3E6301C00F073FC2030ADE6283B211C994000228A4690468EE6201C00F067FC203078E65846204207D10443039913
:401940002403240B89469046364B4AE63C432403240B344B45E6344B049E9B1B382B06DD01230B4000249946A046002339E61F2B25DC049C2D4D4646601952464446864033
:40198000DC4082405746301C2243DF40441EA04102433B1C540709D00F201040042805D0101D9042924152429B18021C1D021AD501230B4000249946A046012311E61C482D
:4019C000049C5546001BC540281C202B16D0194E5746A21997403A1C43461A43531E9A4102430023D6E758075B02D2081C0B01230B401043994680460023F2E50022EBE7C2
:401A00008024240350460123044319402403240B8946044BE5E5C046FF030000FFFFFFFEFE070000FF07000002FCFFFF1E040000E2FBFFFF3E040000F8B55F465646444682
:401A40004D46F0B40C034D00CF0F610A440F2143C4001803DE0F8046B44646465800760A530F3343D600D14A6D0DBA46400DB346904200D1F5E062460126724094466745DB
:401A800000D1ABE02F1A002F00DC11E100283ED15846184300D0F1E0600700D197E00F232340042B00D122E1221DA242A4416442802309191B04012750460B400740141C5A
:401AC000002B00D179E0B94B01359D4200D10BE1B74BE40819404807490204430B0B002000211B031A0B0B0D6D051B0513436A08B04DFF071D4015436D006D08291C39432C
:401B0000201C3CBC90469946A246AB46F8BDA7488542C1D0802000040343382F00DDFDE01F2F00DD31E12020C01B1A1C5E468240FE40324394465A468240101C421E90419C
:401B4000FB40624602431F1CA21A9442A4416442C91B091B141C0A029ED549024F0A002F00D1D6E0381C00F04BFB021C083A1F2A00DDC3E02821231C091A9740CB401F4332
:401B80009440954200DDC0E0551B691C1F2900DDEAE01F22551B3B1C221CAB40CA40AC40651EAC411343CF401C43391C002573E780217E4D0027C90300247C4B4807E40865
:401BC0000443C9089D4250D009030B0B87E780231B04012752460B40174071E72A1A9446002A00DCA1E0002854D07048854200D152E78020000403436046382800DD0EE18C
:401C00001F2800DD57E162462020801A1E1C8640B1465E46D6404A4632435E4686409046301C421E9041424602436046C3401219A242A441644259180919141C080200D4A2
:401C40002AE75A4B01359D4200D131E1584B60081940012323401C1C0443CB071C4349081AE71E4300D00AE705E7231C0B433BD080231B030B431B031B0B30E7013F002F4A
:401C80006DD15E46A21B9442A4416442C91A091B141C60E75846184300D1FDE601267642B4446046002800D0D0E05E463219BFE7002F00D080E0681C4005400D012800DCC5
:401CC000E8E05A46A21A9442BF41C81A7F42C71B3E0200D498E05846041BA3459241591A52428F1AE2463AE700230024F7E680231B04012756460B403740E1E6271C283892
:401D000087400024954200DC3EE72949AD1A3940C2E6201C00F074FA203026E75A461A43531E9A41D2B200270EE7002A00D0DEE0681C4605760D012E00DC90E01B4DA842CF
:401D400000D1F5E05E463219A242A441644259180919CC07520814434908051C9CE61348854200D0D9E697E62B1C1F3B3E1CDE40331C20296FD03F22551BAF403C43601E79
:401D800084411C430021002586E6381C20381E1CC640301C202F60D04022D71BBB405A461A43531E9A4102430027CDE6FF070000FFFF7FFFFFFF0F80002D37D0B64DA842AF
:401DC00000D18FE080252D047F422943382F00DDA8E01F2F00DD24E12025ED1B0E1CAE40B046261CFE404246AC401643651EAC413443F9405A46141BA34592415B1A524249
:401E0000991A051CE246A6E6131C3B43141C002B00D0A4E60027002100250024CDE65A461A43531E9A41D2B2002300E70D1C254358D0FF43002F51D15A46141BA3459241C7
:401E4000591A5242891A051CE24684E69248854200D0D1E620E6002790E700239FE7081C2043002D00D0C2E0002800D1EFE05846184300D110E658460219A242A4416442BA
:401E800059180919141C0A0200D405E6834B0125194001E6081C2043002D38D100286FD15946194303D0191C5C46E246F4E500270021002481E6604620381A1CC2406646E0
:401EC000101C202E00D1AAE04022921B93405A461A43531E9A4102430023A8E66E4DA84200D073E7191C5C46051CE246D4E5002D22D10D1C254376D0D543002D70D15C4427
:401F00005C459241591852428918051C96E600284CD15946194300D14AE6191C5C46E2465D4DB9E50C43611E8C41E4B2002161E7051C0021002440E6574DA84253D05542F4
:401F4000802216043143382D7BDC1F2D00DD8CE02022561B0A1CB446B240261CEE403243904662469440661EB44142461443E9405C445C459241CB1852429918051C5DE6C3
:401F80005846184300D187E55E46A71BBC429241C81A5242801A060260D55846041BA3459241591A5242891AE24675E55846184333D04807E40804438020C908000301428E
:401FC00008D0DD08054205D15946CA085C071443291CE246630FC9001943E4002E4D5BE52D4A9042AFD1191C5C46051C54E5002830D05846184310D080254807E408C9088D
:402000002D0304432942E5D0D8082842E2D15D46EA085C071443011CDCE71F4D3CE5002355E73D1C203D0E1CEE40351C202F2ED04026F71BB9400C43611E8C412C430021A9
:40204000D8E60C43611E8C41E4B2002190E7191C5C4621E5191C5C460F4D1DE5031C3B4300D124E7011C3C1C16E52026764276190A1CF2409046202D0BD04026751BA9401C
:402080000C43611E8C4145462C43002170E70021D1E70021F4E7C046FF070000FFFF7FFF70B50B1C124C09030E0B5900021C490DDD0F0020A14211DD0E4881420FDC802099
:4020C000400306430C48401A1F280BDD0B4A521AD640321C5042002D00D1101C70BD084BE818FBE7074BC240C9188E403243F1E7FE0300001D040000330400001304000074
:40210000FFFFFF7FEDFBFFFFF8B5041E31D0C70F00D04442201C00F073F8184D2D1A0A2819DD0B38844024036D05240B6D0D3A1C0026002000210B0D2403240B1B052343DC
:402140000F4C2D051C402C4364006408D307211C301C1943F8BD061C1536231CB3401E1C0B23181AC44024036D05240B6D0D3A1CDFE70022002500240026DAE71E040000B4
:40218000FFFF0F808446101C62468C46191C634600E0C0461FB500F019F9002801D40021C8421FBD10B500F049F84042013010BD10B500F00BF9002801DB002010BD012043
:4021C00010BDC04610B500F001F9002801DD002010BD012010BDC04610B500F079F8002801DC002010BD012010BDC04610B500F06FF8002801DA002010BD012010BDC0466A
:402200001C2101231B04984201D3000C10391B0A984201D3000A08391B09984201D30009043902A2105C40187047C04604030202010101010000000000000000F0B55F4667
:4022400056464D464446F0B40D1C041C8046E80F814618030F03000B3F0B83B084461B48009749005E00DF0F490D9246760DBB4681420CD01548864210D00120B14215D0D7
:4022800003B03CBC90469946A246AB46F0BD009F01202743F4D10D488642EED1604602430120002AECD10120B142E9D1009B6345E6D1D045E4D1D94506D00029E0D11C43BB
:4022C000201C441EA041DBE70020D9E7FF070000F0B55F4656464D464446F0B4CD0FDE0FAC461D032D0BB146374E0F034C00AB465D0080463F0B640D92466D0DB44232D00A
:40230000314EB54235D0002C0ED1384341424141081C002D0BD0002919D1CC452DD0654668420123184318E0002DF6D1281C59460A4353425341002806D1002BEDD06346A1
:4023400058420123184308E00020002B05D14A46504250414042012318433CBC90469946A246AB46F0BD3E1C0643C9D002204042F3E75E461643C6D0F8E7AC4207DC0BDA72
:40238000614648424841404201231843E5E76646704201231843E0E75F450AD80ED000205F45DAD2654668426841404201231843D3E76246504201231843CEE7D045F8D812
:4023C0000020D045EED3C8E7FF070000F0B556464D4644465F46F0B40D1C83B0041C0190E80F814618030F03000B3F0B84463548009749005E00DF0F490D9246760DB8461C
:40240000814234D02F48864236D0002918D0002E1FD1341C67463A4353425341002C1FD00020002B05D142465042504140420123184303B03CBC90469946A246AB46F0BDF0
:402440000098044360426041041C002EE2D00028E9D1C14515D04F46784201231843E8E7002BF6D04B46584201231843E1E7009F02202743DDD1C5E7674602201743D8D116
:40248000C3E7B14204DD4A46504201231843D0E7B14207DB00986045E4D80AD0009F00206745C6D24F4678427841404201231843BFE7019A5245D5D8019A00205245F1D3F7
:4024C000B7E7C046FF07000070B50E4B0E4D0024ED1AAD101E1CAC4204D0A300F35898470134F8E700F076F8084B094D0024ED1AAD101E1CAC4204D0A300F35898470134A7
:40250000F8E770BDE0250000E0250000E0250000E8250000031C8218934202D019700133FAE77047000000000400000000300F40000400400F40000402600F4002011101DE
:402540000000000000000000000000000000000000010203B8100000541000009C100000820F00009C100000901000009C100000820F0000541000005410000090100000FB
:40258000820F0000780F0000780F0000780F0000DC120000FC160000EA180000EA180000DC160000C6150000C6150000CE160000DC160000C6150000CE160000C6150000D9
:4025C000DC160000C4150000C4150000C4150000F2180000F8B5C046F8BC08BC9E4670478103000039050000F8B5C046F8BC08BC9E4670475903000008260000C800002094
:40260000180000003800000000000000C0F1FF0F006CDC0280BB0000300000000000C05D0000000000000000000000000000000000000000000000000000000000000000B9
:40264000000000000000000000000000000000000000000000000000000000000000000000000000000000000000000000000000000000000000000000000000000000005A
:40268000000000000000000000000000000000000000000000000000000000000000000000000000000000000000000000000000000000000000000000000000000000001A
:4026C00000000000000000000000000000000000000000000000000000000000000000000000000000000000000000000000000000000000000000000000000000000000DA
:402700000000000000000000000000000000000000000000000000000000000000000000000000000000000000000000000000000000000000000000000000000000000099
:020000040001F9
:0200000490303A
:020000004ABAFA
:0200000490402A
:4000000000000000000000000000000000000000000000000000000000000000000000000000000000000000000000000000000000000000000000000000000000000000C0
:400040000000000000000000000000000000000000000000000000000000000000000000000000000000000000000000000000000000000000000000000000000000000080
:0200000490501A
:0C00000000020E34119E00010E405C58FE
:0200000490600A
:0100000001FE
:00000001FF